{
  "contractName": "Mileage",
  "abi": [
    {
      "inputs": [],
      "payable": false,
      "stateMutability": "nonpayable",
      "type": "constructor"
    },
    {
      "constant": true,
      "inputs": [
        {
          "internalType": "bytes32",
          "name": "",
          "type": "bytes32"
        }
      ],
      "name": "mappedVinToKeyEntries",
      "outputs": [
        {
          "internalType": "address",
          "name": "",
          "type": "address"
        }
      ],
      "payable": false,
      "stateMutability": "view",
      "type": "function"
    },
    {
      "constant": true,
      "inputs": [
        {
          "internalType": "address",
          "name": "",
          "type": "address"
        },
        {
          "internalType": "uint256",
          "name": "",
          "type": "uint256"
        }
      ],
      "name": "mileageEntries",
      "outputs": [
        {
          "internalType": "uint256",
          "name": "mileageValue",
          "type": "uint256"
        },
        {
          "internalType": "uint256",
          "name": "timestamp",
          "type": "uint256"
        }
      ],
      "payable": false,
      "stateMutability": "view",
      "type": "function"
    },
    {
      "constant": false,
      "inputs": [
        {
          "internalType": "uint256",
          "name": "mileage",
          "type": "uint256"
        },
        {
          "internalType": "uint256",
          "name": "timestamp",
          "type": "uint256"
        }
      ],
      "name": "storeMileage",
      "outputs": [
        {
          "internalType": "address",
          "name": "",
          "type": "address"
        }
      ],
      "payable": false,
      "stateMutability": "nonpayable",
      "type": "function"
    },
    {
      "constant": true,
      "inputs": [
        {
          "internalType": "address",
          "name": "target",
          "type": "address"
        }
      ],
      "name": "getEntryCount",
      "outputs": [
        {
          "internalType": "uint256",
          "name": "count",
          "type": "uint256"
        }
      ],
      "payable": false,
      "stateMutability": "view",
      "type": "function"
    },
    {
      "constant": true,
      "inputs": [
        {
          "internalType": "address",
          "name": "target",
          "type": "address"
        }
      ],
      "name": "getMileageArray",
      "outputs": [
        {
          "internalType": "uint256[]",
          "name": "",
          "type": "uint256[]"
        }
      ],
      "payable": false,
      "stateMutability": "view",
      "type": "function"
    },
    {
      "constant": true,
      "inputs": [
        {
          "internalType": "address",
          "name": "target",
          "type": "address"
        }
      ],
      "name": "getTimestampArray",
      "outputs": [
        {
          "internalType": "uint256[]",
          "name": "",
          "type": "uint256[]"
        }
      ],
      "payable": false,
      "stateMutability": "view",
      "type": "function"
    },
    {
      "constant": false,
      "inputs": [
        {
          "internalType": "bytes32",
          "name": "hashedVin",
          "type": "bytes32"
        },
        {
          "internalType": "address",
          "name": "publicKey",
          "type": "address"
        }
      ],
      "name": "mapVinToPublicKey",
      "outputs": [],
      "payable": false,
      "stateMutability": "nonpayable",
      "type": "function"
    },
    {
      "constant": true,
      "inputs": [
        {
          "internalType": "bytes32",
          "name": "hashedVin",
          "type": "bytes32"
        }
      ],
      "name": "resetVinMapping",
      "outputs": [],
      "payable": false,
      "stateMutability": "view",
      "type": "function"
    },
    {
      "constant": true,
      "inputs": [
        {
          "internalType": "bytes32",
          "name": "hashedVin",
          "type": "bytes32"
        }
      ],
      "name": "getAddress",
      "outputs": [
        {
          "internalType": "address",
          "name": "",
          "type": "address"
        }
      ],
      "payable": false,
      "stateMutability": "view",
      "type": "function"
    }
  ],
  "bytecode": "0x608060405234801561001057600080fd5b5033600260006101000a81548173ffffffffffffffffffffffffffffffffffffffff021916908373ffffffffffffffffffffffffffffffffffffffff160217905550610a9d806100616000396000f3fe608060405234801561001057600080fd5b50600436106100935760003560e01c80634ca9d716116100665780634ca9d7161461025b5780636edcd9b2146102c4578063ad011a19146102f2578063c5c9bd251461038b578063f520ee4e146103e357610093565b8063025fdefb14610098578063096720171461013157806321f8a7211461017f578063280d6ca3146101ed575b600080fd5b6100da600480360360208110156100ae57600080fd5b81019080803573ffffffffffffffffffffffffffffffffffffffff16906020019092919050505061045b565b6040518080602001828103825283818151815260200191508051906020019060200280838360005b8381101561011d578082015181840152602081019050610102565b505050509050019250505060405180910390f35b61017d6004803603604081101561014757600080fd5b8101908080359060200190929190803573ffffffffffffffffffffffffffffffffffffffff1690602001909291905050506105b0565b005b6101ab6004803603602081101561019557600080fd5b81019080803590602001909291905050506106db565b604051808273ffffffffffffffffffffffffffffffffffffffff1673ffffffffffffffffffffffffffffffffffffffff16815260200191505060405180910390f35b6102196004803603602081101561020357600080fd5b8101908080359060200190929190505050610718565b604051808273ffffffffffffffffffffffffffffffffffffffff1673ffffffffffffffffffffffffffffffffffffffff16815260200191505060405180910390f35b6102a76004803603604081101561027157600080fd5b81019080803573ffffffffffffffffffffffffffffffffffffffff1690602001909291908035906020019092919050505061074b565b604051808381526020018281526020019250505060405180910390f35b6102f0600480360360208110156102da57600080fd5b8101908080359060200190929190505050610789565b005b6103346004803603602081101561030857600080fd5b81019080803573ffffffffffffffffffffffffffffffffffffffff16906020019092919050505061081e565b6040518080602001828103825283818151815260200191508051906020019060200280838360005b8381101561037757808201518184015260208101905061035c565b505050509050019250505060405180910390f35b6103cd600480360360208110156103a157600080fd5b81019080803573ffffffffffffffffffffffffffffffffffffffff169060200190929190505050610973565b6040518082815260200191505060405180910390f35b610419600480360360408110156103f957600080fd5b8101908080359060200190929190803590602001909291905050506109c3565b604051808273ffffffffffffffffffffffffffffffffffffffff1673ffffffffffffffffffffffffffffffffffffffff16815260200191505060405180910390f35b6060806000808473ffffffffffffffffffffffffffffffffffffffff1673ffffffffffffffffffffffffffffffffffffffff168152602001908152602001600020805490506040519080825280602002602001820160405280156104ce5781602001602082028038833980820191505090505b50905060008090505b6000808573ffffffffffffffffffffffffffffffffffffffff1673ffffffffffffffffffffffffffffffffffffffff168152602001908152602001600020805490508110156105a65760008060008673ffffffffffffffffffffffffffffffffffffffff1673ffffffffffffffffffffffffffffffffffffffff168152602001908152602001600020828154811061056b57fe5b90600052602060002090600202019050806000015483838151811061058c57fe5b6020026020010181815250505080806001019150506104d7565b5080915050919050565b600073ffffffffffffffffffffffffffffffffffffffff166001600084815260200190815260200160002060009054906101000a900473ffffffffffffffffffffffffffffffffffffffff1673ffffffffffffffffffffffffffffffffffffffff161461061c57600080fd5b600073ffffffffffffffffffffffffffffffffffffffff166001600084815260200190815260200160002060009054906101000a900473ffffffffffffffffffffffffffffffffffffffff1673ffffffffffffffffffffffffffffffffffffffff1614156106d757806001600084815260200190815260200160002060006101000a81548173ffffffffffffffffffffffffffffffffffffffff021916908373ffffffffffffffffffffffffffffffffffffffff1602179055505b5050565b60006001600083815260200190815260200160002060009054906101000a900473ffffffffffffffffffffffffffffffffffffffff169050919050565b60016020528060005260406000206000915054906101000a900473ffffffffffffffffffffffffffffffffffffffff1681565b6000602052816000526040600020818154811061076457fe5b9060005260206000209060020201600091509150508060000154908060010154905082565b3373ffffffffffffffffffffffffffffffffffffffff16600260009054906101000a900473ffffffffffffffffffffffffffffffffffffffff1673ffffffffffffffffffffffffffffffffffffffff16146107e357600080fd5b600073ffffffffffffffffffffffffffffffffffffffff166001600083815260200190815260200160002060009054906101000a9050505050565b6060806000808473ffffffffffffffffffffffffffffffffffffffff1673ffffffffffffffffffffffffffffffffffffffff168152602001908152602001600020805490506040519080825280602002602001820160405280156108915781602001602082028038833980820191505090505b50905060008090505b6000808573ffffffffffffffffffffffffffffffffffffffff1673ffffffffffffffffffffffffffffffffffffffff168152602001908152602001600020805490508110156109695760008060008673ffffffffffffffffffffffffffffffffffffffff1673ffffffffffffffffffffffffffffffffffffffff168152602001908152602001600020828154811061092e57fe5b90600052602060002090600202019050806001015483838151811061094f57fe5b60200260200101818152505050808060010191505061089a565b5080915050919050565b6000806000808473ffffffffffffffffffffffffffffffffffffffff1673ffffffffffffffffffffffffffffffffffffffff16815260200190815260200160002080549050905080915050919050565b6000803390506000808273ffffffffffffffffffffffffffffffffffffffff1673ffffffffffffffffffffffffffffffffffffffff168152602001908152602001600020604051806040016040528086815260200185815250908060018154018082558091505090600182039060005260206000209060020201600090919290919091506000820151816000015560208201518160010155505050809150509291505056fea265627a7a72315820cfeb5acdde8b8c3aaf2d381a16e6517452631ca5b22ed9eb3e87e05c913fc66064736f6c63430005100032",
  "source": "pragma solidity ^0.5.0;\r\n\r\ncontract Mileage {\r\n    struct MileageEntry{\r\n        uint mileageValue;\r\n        uint timestamp;\r\n    }\r\n\r\n    mapping(address=>MileageEntry[]) public mileageEntries;\r\n    //*\r\n    mapping(bytes32 => address) public mappedVinToKeyEntries;\r\n    address owner;\r\n    constructor() public{\r\n     owner=msg.sender;\r\n    }\r\n    function storeMileage(uint mileage, uint timestamp) public returns(address){\r\n        address payable vehicleIdentity = msg.sender;\r\n        mileageEntries[vehicleIdentity].push(MileageEntry({\r\n        mileageValue: mileage,\r\n        timestamp: timestamp\r\n    }));\r\n        return vehicleIdentity;\r\n    }\r\n\r\n    function getEntryCount(address target) public view\r\n    returns(uint count){\r\n        uint count = mileageEntries[target].length;\r\n        return count;\r\n    }\r\n\r\n    function getMileageArray(address target) public view returns(uint[] memory){\r\n        uint[] memory mileage = new uint[](mileageEntries[target].length);\r\n        for(uint i = 0; i<mileageEntries[target].length;i++){\r\n        MileageEntry storage entry = mileageEntries[target][i];\r\n        mileage[i]=entry.mileageValue;\r\n        }\r\n        return mileage;\r\n    }\r\n\r\n    function getTimestampArray(address target) public view returns(uint[] memory){\r\n        uint[] memory stamp = new uint[](mileageEntries[target].length);\r\n        for(uint i = 0; i<mileageEntries[target].length;i++){\r\n            MileageEntry storage entry = mileageEntries[target][i];\r\n            stamp[i]=entry.timestamp;\r\n        }\r\n        return stamp;\r\n    }\r\n\r\n    //bind the Vin with the public key(the address)\r\n    function mapVinToPublicKey(bytes32 hashedVin, address publicKey)public{\r\n        require(mappedVinToKeyEntries[hashedVin] == address(0x0));\r\n        //s'il n'y a pas de mapping d'existe,met mapping\r\n        if(mappedVinToKeyEntries[hashedVin] == address(0x0)){\r\n            mappedVinToKeyEntries[hashedVin] = publicKey;\r\n        }\r\n    }\r\n    //unbind de Vin with the public key(the address)\r\n    function resetVinMapping(bytes32 hashedVin)public view{\r\n        require(owner == msg.sender);\r\n        mappedVinToKeyEntries[hashedVin] == address(0x0);\r\n    }\r\n\r\n    function getAddress(bytes32 hashedVin) public view returns(address){\r\n        return mappedVinToKeyEntries[hashedVin];\r\n    }\r\n\r\n}\r\n\r\n\r\n\r\n\r\n\r\n\r\n\r\n\r\n",
  "sourcePath": "F:/repo/VELOCK/VELOCKSC/contracts/Mileage.sol",
  "compiler": {
    "name": "solc",
    "version": "0.5.16+commit.9c3226ce.Emscripten.clang"
  },
  "schemaVersion": "3.4.1",
  "updatedAt": "2021-05-21T12:29:50.246Z",
  "networkType": "ethereum",
  "devdoc": {
    "methods": {}
  },
  "userdoc": {
    "methods": {}
  }
}