{
  "contractName": "Mileage",
  "abi": [
    {
      "constant": true,
      "inputs": [
        {
          "internalType": "bytes32",
          "name": "",
          "type": "bytes32"
        }
      ],
      "name": "mappedVinToKeyEntries",
      "outputs": [
        {
          "internalType": "address",
          "name": "",
          "type": "address"
        }
      ],
      "payable": false,
      "stateMutability": "view",
      "type": "function"
    },
    {
      "constant": true,
      "inputs": [
        {
          "internalType": "address",
          "name": "",
          "type": "address"
        },
        {
          "internalType": "uint256",
          "name": "",
          "type": "uint256"
        }
      ],
      "name": "mileageEntries",
      "outputs": [
        {
          "internalType": "uint256",
          "name": "mileageValue",
          "type": "uint256"
        },
        {
          "internalType": "uint256",
          "name": "timestamp",
          "type": "uint256"
        }
      ],
      "payable": false,
      "stateMutability": "view",
      "type": "function"
    },
    {
      "constant": true,
      "inputs": [],
      "name": "owner",
      "outputs": [
        {
          "internalType": "address",
          "name": "",
          "type": "address"
        }
      ],
      "payable": false,
      "stateMutability": "view",
      "type": "function"
    },
    {
      "constant": true,
      "inputs": [
        {
          "internalType": "address",
          "name": "",
          "type": "address"
        }
      ],
      "name": "reverse",
      "outputs": [
        {
          "internalType": "bytes32",
          "name": "",
          "type": "bytes32"
        }
      ],
      "payable": false,
      "stateMutability": "view",
      "type": "function"
    },
    {
      "constant": false,
      "inputs": [
        {
          "internalType": "uint256",
          "name": "mileage",
          "type": "uint256"
        },
        {
          "internalType": "uint256",
          "name": "timestamp",
          "type": "uint256"
        }
      ],
      "name": "storeMileage",
      "outputs": [
        {
          "internalType": "address",
          "name": "",
          "type": "address"
        }
      ],
      "payable": false,
      "stateMutability": "nonpayable",
      "type": "function"
    },
    {
      "constant": true,
      "inputs": [
        {
          "internalType": "address",
          "name": "target",
          "type": "address"
        }
      ],
      "name": "getEntryCount",
      "outputs": [
        {
          "internalType": "uint256",
          "name": "count",
          "type": "uint256"
        }
      ],
      "payable": false,
      "stateMutability": "view",
      "type": "function"
    },
    {
      "constant": true,
      "inputs": [
        {
          "internalType": "address",
          "name": "target",
          "type": "address"
        }
      ],
      "name": "getMileageArray",
      "outputs": [
        {
          "internalType": "uint256[]",
          "name": "",
          "type": "uint256[]"
        }
      ],
      "payable": false,
      "stateMutability": "view",
      "type": "function"
    },
    {
      "constant": true,
      "inputs": [
        {
          "internalType": "address",
          "name": "target",
          "type": "address"
        }
      ],
      "name": "getTimestampArray",
      "outputs": [
        {
          "internalType": "uint256[]",
          "name": "",
          "type": "uint256[]"
        }
      ],
      "payable": false,
      "stateMutability": "view",
      "type": "function"
    },
    {
      "constant": false,
      "inputs": [
        {
          "internalType": "bytes32",
          "name": "hashedVin",
          "type": "bytes32"
        },
        {
          "internalType": "address",
          "name": "publicKey",
          "type": "address"
        }
      ],
      "name": "mapVinToPublicKey",
      "outputs": [
        {
          "internalType": "string",
          "name": "",
          "type": "string"
        }
      ],
      "payable": false,
      "stateMutability": "nonpayable",
      "type": "function"
    },
    {
      "constant": false,
      "inputs": [
        {
          "internalType": "bytes32",
          "name": "hashedVin",
          "type": "bytes32"
        },
        {
          "internalType": "address",
          "name": "addr",
          "type": "address"
        }
      ],
      "name": "resetVinMapping",
      "outputs": [
        {
          "internalType": "string",
          "name": "",
          "type": "string"
        }
      ],
      "payable": false,
      "stateMutability": "nonpayable",
      "type": "function"
    },
    {
      "constant": true,
      "inputs": [
        {
          "internalType": "bytes32",
          "name": "hashedVin",
          "type": "bytes32"
        }
      ],
      "name": "getAddress",
      "outputs": [
        {
          "internalType": "address",
          "name": "",
          "type": "address"
        }
      ],
      "payable": false,
      "stateMutability": "view",
      "type": "function"
    }
  ],
  "bytecode": "0x608060405233600360006101000a81548173ffffffffffffffffffffffffffffffffffffffff021916908373ffffffffffffffffffffffffffffffffffffffff16021790555034801561005157600080fd5b50610e18806100616000396000f3fe608060405234801561001057600080fd5b50600436106100a95760003560e01c80637c8b8a93116100715780637c8b8a93146103535780638da5cb5b1461041a578063ad011a1914610464578063c5c9bd25146104fd578063e30bd74014610555578063f520ee4e146105ad576100a9565b8063025fdefb146100ae578063096720171461014757806321f8a7211461020e578063280d6ca31461027c5780634ca9d716146102ea575b600080fd5b6100f0600480360360208110156100c457600080fd5b81019080803573ffffffffffffffffffffffffffffffffffffffff169060200190929190505050610625565b6040518080602001828103825283818151815260200191508051906020019060200280838360005b83811015610133578082015181840152602081019050610118565b505050509050019250505060405180910390f35b6101936004803603604081101561015d57600080fd5b8101908080359060200190929190803573ffffffffffffffffffffffffffffffffffffffff16906020019092919050505061077a565b6040518080602001828103825283818151815260200191508051906020019080838360005b838110156101d35780820151818401526020810190506101b8565b50505050905090810190601f1680156102005780820380516001836020036101000a031916815260200191505b509250505060405180910390f35b61023a6004803603602081101561022457600080fd5b8101908080359060200190929190505050610941565b604051808273ffffffffffffffffffffffffffffffffffffffff1673ffffffffffffffffffffffffffffffffffffffff16815260200191505060405180910390f35b6102a86004803603602081101561029257600080fd5b810190808035906020019092919050505061097e565b604051808273ffffffffffffffffffffffffffffffffffffffff1673ffffffffffffffffffffffffffffffffffffffff16815260200191505060405180910390f35b6103366004803603604081101561030057600080fd5b81019080803573ffffffffffffffffffffffffffffffffffffffff169060200190929190803590602001909291905050506109b1565b604051808381526020018281526020019250505060405180910390f35b61039f6004803603604081101561036957600080fd5b8101908080359060200190929190803573ffffffffffffffffffffffffffffffffffffffff1690602001909291905050506109ef565b6040518080602001828103825283818151815260200191508051906020019080838360005b838110156103df5780820151818401526020810190506103c4565b50505050905090810190601f16801561040c5780820380516001836020036101000a031916815260200191505b509250505060405180910390f35b610422610b5b565b604051808273ffffffffffffffffffffffffffffffffffffffff1673ffffffffffffffffffffffffffffffffffffffff16815260200191505060405180910390f35b6104a66004803603602081101561047a57600080fd5b81019080803573ffffffffffffffffffffffffffffffffffffffff169060200190929190505050610b81565b6040518080602001828103825283818151815260200191508051906020019060200280838360005b838110156104e95780820151818401526020810190506104ce565b505050509050019250505060405180910390f35b61053f6004803603602081101561051357600080fd5b81019080803573ffffffffffffffffffffffffffffffffffffffff169060200190929190505050610cd6565b6040518082815260200191505060405180910390f35b6105976004803603602081101561056b57600080fd5b81019080803573ffffffffffffffffffffffffffffffffffffffff169060200190929190505050610d26565b6040518082815260200191505060405180910390f35b6105e3600480360360408110156105c357600080fd5b810190808035906020019092919080359060200190929190505050610d3e565b604051808273ffffffffffffffffffffffffffffffffffffffff1673ffffffffffffffffffffffffffffffffffffffff16815260200191505060405180910390f35b6060806000808473ffffffffffffffffffffffffffffffffffffffff1673ffffffffffffffffffffffffffffffffffffffff168152602001908152602001600020805490506040519080825280602002602001820160405280156106985781602001602082028038833980820191505090505b50905060008090505b6000808573ffffffffffffffffffffffffffffffffffffffff1673ffffffffffffffffffffffffffffffffffffffff168152602001908152602001600020805490508110156107705760008060008673ffffffffffffffffffffffffffffffffffffffff1673ffffffffffffffffffffffffffffffffffffffff168152602001908152602001600020828154811061073557fe5b90600052602060002090600202019050806000015483838151811061075657fe5b6020026020010181815250505080806001019150506106a1565b5080915050919050565b6060600073ffffffffffffffffffffffffffffffffffffffff166001600085815260200190815260200160002060009054906101000a900473ffffffffffffffffffffffffffffffffffffffff1673ffffffffffffffffffffffffffffffffffffffff1614801561082a57506000600260008473ffffffffffffffffffffffffffffffffffffffff1673ffffffffffffffffffffffffffffffffffffffff16815260200190815260200160002054145b1561090257816001600085815260200190815260200160002060006101000a81548173ffffffffffffffffffffffffffffffffffffffff021916908373ffffffffffffffffffffffffffffffffffffffff16021790555082600260008473ffffffffffffffffffffffffffffffffffffffff1673ffffffffffffffffffffffffffffffffffffffff168152602001908152602001600020819055506040518060400160405280600281526020017f4f4b000000000000000000000000000000000000000000000000000000000000815250905061093b565b6040518060400160405280600681526020017f4641494c4544000000000000000000000000000000000000000000000000000081525090505b92915050565b60006001600083815260200190815260200160002060009054906101000a900473ffffffffffffffffffffffffffffffffffffffff169050919050565b60016020528060005260406000206000915054906101000a900473ffffffffffffffffffffffffffffffffffffffff1681565b600060205281600052604060002081815481106109ca57fe5b9060005260206000209060020201600091509150508060000154908060010154905082565b6060600360009054906101000a900473ffffffffffffffffffffffffffffffffffffffff1673ffffffffffffffffffffffffffffffffffffffff163373ffffffffffffffffffffffffffffffffffffffff161415610b1c5760006001600085815260200190815260200160002060006101000a81548173ffffffffffffffffffffffffffffffffffffffff021916908373ffffffffffffffffffffffffffffffffffffffff1602179055506000600260008473ffffffffffffffffffffffffffffffffffffffff1673ffffffffffffffffffffffffffffffffffffffff168152602001908152602001600020819055506040518060400160405280600281526020017f4f4b0000000000000000000000000000000000000000000000000000000000008152509050610b55565b6040518060400160405280600681526020017f4641494c4544000000000000000000000000000000000000000000000000000081525090505b92915050565b600360009054906101000a900473ffffffffffffffffffffffffffffffffffffffff1681565b6060806000808473ffffffffffffffffffffffffffffffffffffffff1673ffffffffffffffffffffffffffffffffffffffff16815260200190815260200160002080549050604051908082528060200260200182016040528015610bf45781602001602082028038833980820191505090505b50905060008090505b6000808573ffffffffffffffffffffffffffffffffffffffff1673ffffffffffffffffffffffffffffffffffffffff16815260200190815260200160002080549050811015610ccc5760008060008673ffffffffffffffffffffffffffffffffffffffff1673ffffffffffffffffffffffffffffffffffffffff1681526020019081526020016000208281548110610c9157fe5b906000526020600020906002020190508060010154838381518110610cb257fe5b602002602001018181525050508080600101915050610bfd565b5080915050919050565b6000806000808473ffffffffffffffffffffffffffffffffffffffff1673ffffffffffffffffffffffffffffffffffffffff16815260200190815260200160002080549050905080915050919050565b60026020528060005260406000206000915090505481565b6000803390506000808273ffffffffffffffffffffffffffffffffffffffff1673ffffffffffffffffffffffffffffffffffffffff168152602001908152602001600020604051806040016040528086815260200185815250908060018154018082558091505090600182039060005260206000209060020201600090919290919091506000820151816000015560208201518160010155505050809150509291505056fea265627a7a723158203d8e3b847a23674650df08d42ac748c9e0e5444f85c1c7bb424542eeae6ead4864736f6c63430005100032",
  "source": "pragma solidity ^0.5.0;\r\n\r\ncontract Mileage {\r\n    struct MileageEntry{\r\n        uint mileageValue;\r\n        uint timestamp;\r\n    }\r\n\r\n    mapping(address=>MileageEntry[]) public mileageEntries;\r\n    //*\r\n    mapping(bytes32 => address) public mappedVinToKeyEntries;\r\n    mapping(address => bytes32) public reverse;\r\n    address public owner = msg.sender;\r\n    function storeMileage(uint mileage, uint timestamp) public returns(address){\r\n        address payable vehicleIdentity = msg.sender;\r\n        mileageEntries[vehicleIdentity].push(MileageEntry({\r\n        mileageValue: mileage,\r\n        timestamp: timestamp\r\n    }));\r\n        return vehicleIdentity;\r\n    }\r\n\r\n    function getEntryCount(address target) public view\r\n    returns(uint count){\r\n        uint count = mileageEntries[target].length;\r\n        return count;\r\n    }\r\n\r\n    function getMileageArray(address target) public view returns(uint[] memory){\r\n        uint[] memory mileage = new uint[](mileageEntries[target].length);\r\n        for(uint i = 0; i<mileageEntries[target].length;i++){\r\n        MileageEntry storage entry = mileageEntries[target][i];\r\n        mileage[i]=entry.mileageValue;\r\n        }\r\n        return mileage;\r\n    }\r\n\r\n    function getTimestampArray(address target) public view returns(uint[] memory){\r\n        uint[] memory stamp = new uint[](mileageEntries[target].length);\r\n        for(uint i = 0; i<mileageEntries[target].length;i++){\r\n            MileageEntry storage entry = mileageEntries[target][i];\r\n            stamp[i]=entry.timestamp;\r\n        }\r\n        return stamp;\r\n    }\r\n\r\n    //bind the Vin with the public key(the address)\r\n    function mapVinToPublicKey(bytes32 hashedVin, address publicKey)public\r\n    returns (string memory){\r\n        if(mappedVinToKeyEntries[hashedVin] == address(0x0)\r\n        && reverse[publicKey]  == \"\"){\r\n            mappedVinToKeyEntries[hashedVin] = publicKey;\r\n            reverse[publicKey]=hashedVin;\r\n            return (\"OK\");\r\n        }\r\n        return (\"FAILED\");\r\n    }\r\n\r\n    //unbind de Vin with the public key(the address)\r\n    function resetVinMapping(bytes32 hashedVin, address addr)public\r\n    returns (string memory){\r\n        if(msg.sender==owner) {\r\n        mappedVinToKeyEntries[hashedVin] = address(0x0);\r\n        reverse[addr] = \"\";\r\n        return (\"OK\");\r\n        }\r\n        return (\"FAILED\");\r\n    }\r\n\r\n    function getAddress(bytes32 hashedVin) public view returns(address){\r\n\r\n        return mappedVinToKeyEntries[hashedVin];\r\n    }\r\n\r\n}\r\n\r\n\r\n\r\n\r\n\r\n\r\n\r\n\r\n",
  "sourcePath": "F:/repo/VELOCK/VELOCKSC/contracts/Mileage.sol",
  "compiler": {
    "name": "solc",
    "version": "0.5.16+commit.9c3226ce.Emscripten.clang"
  },
  "schemaVersion": "3.4.1",
  "updatedAt": "2021-05-26T19:01:31.764Z",
  "networkType": "ethereum",
  "devdoc": {
    "methods": {}
  },
  "userdoc": {
    "methods": {}
  }
}