{
  "contractName": "Mileage",
  "abi": [
    {
      "constant": true,
      "inputs": [
        {
          "internalType": "address",
          "name": "",
          "type": "address"
        },
        {
          "internalType": "uint256",
          "name": "",
          "type": "uint256"
        }
      ],
      "name": "mileageEntries",
      "outputs": [
        {
          "internalType": "uint256",
          "name": "mileageValue",
          "type": "uint256"
        },
        {
          "internalType": "uint256",
          "name": "timestamp",
          "type": "uint256"
        }
      ],
      "payable": false,
      "stateMutability": "view",
      "type": "function"
    },
    {
      "constant": false,
      "inputs": [
        {
          "internalType": "uint256",
          "name": "mileage",
          "type": "uint256"
        },
        {
          "internalType": "uint256",
          "name": "timestamp",
          "type": "uint256"
        }
      ],
      "name": "storeMileage",
      "outputs": [],
      "payable": false,
      "stateMutability": "nonpayable",
      "type": "function"
    },
    {
      "constant": true,
      "inputs": [
        {
          "internalType": "address",
          "name": "target",
          "type": "address"
        }
      ],
      "name": "getMileageByAddress",
      "outputs": [
        {
          "internalType": "uint256[]",
          "name": "",
          "type": "uint256[]"
        },
        {
          "internalType": "uint256[]",
          "name": "",
          "type": "uint256[]"
        }
      ],
      "payable": false,
      "stateMutability": "view",
      "type": "function"
    }
  ],
  "bytecode": "0x608060405234801561001057600080fd5b506104c7806100206000396000f3fe608060405234801561001057600080fd5b50600436106100415760003560e01c80634ca9d7161461004657806389406cdc146100af578063f520ee4e14610190575b600080fd5b6100926004803603604081101561005c57600080fd5b81019080803573ffffffffffffffffffffffffffffffffffffffff169060200190929190803590602001909291905050506101c8565b604051808381526020018281526020019250505060405180910390f35b6100f1600480360360208110156100c557600080fd5b81019080803573ffffffffffffffffffffffffffffffffffffffff169060200190929190505050610206565b604051808060200180602001838103835285818151815260200191508051906020019060200280838360005b8381101561013857808201518184015260208101905061011d565b50505050905001838103825284818151815260200191508051906020019060200280838360005b8381101561017a57808201518184015260208101905061015f565b5050505090500194505050505060405180910390f35b6101c6600480360360408110156101a657600080fd5b8101908080359060200190929190803590602001909291905050506103f3565b005b600060205281600052604060002081815481106101e157fe5b9060005260206000209060020201600091509150508060000154908060010154905082565b60608060606000808573ffffffffffffffffffffffffffffffffffffffff1673ffffffffffffffffffffffffffffffffffffffff1681526020019081526020016000208054905060405190808252806020026020018201604052801561027b5781602001602082028038833980820191505090505b50905060606000808673ffffffffffffffffffffffffffffffffffffffff1673ffffffffffffffffffffffffffffffffffffffff168152602001908152602001600020805490506040519080825280602002602001820160405280156102f05781602001602082028038833980820191505090505b50905060008090505b6000808773ffffffffffffffffffffffffffffffffffffffff1673ffffffffffffffffffffffffffffffffffffffff168152602001908152602001600020805490508110156103e55760008060008873ffffffffffffffffffffffffffffffffffffffff1673ffffffffffffffffffffffffffffffffffffffff168152602001908152602001600020828154811061038d57fe5b9060005260206000209060020201905080600001548483815181106103ae57fe5b60200260200101818152505080600101548383815181106103cb57fe5b6020026020010181815250505080806001019150506102f9565b508181935093505050915091565b60003390506000808273ffffffffffffffffffffffffffffffffffffffff1673ffffffffffffffffffffffffffffffffffffffff16815260200190815260200160002060405180604001604052808581526020018481525090806001815401808255809150509060018203906000526020600020906002020160009091929091909150600082015181600001556020820151816001015550505050505056fea265627a7a7231582025e439c6814bce549e1b1d4b2b63ae4f4a53248112ac247411c36ffb4a0a2a5164736f6c63430005100032",
  "source": "pragma solidity ^0.5.0;\r\n\r\ncontract Mileage {\r\n    struct MileageEntry{\r\n        uint mileageValue;\r\n        uint timestamp;\r\n    }\r\n    mapping(address=>MileageEntry[]) public mileageEntries;\r\n    address owner;\r\n\r\n    //function Mileage() public{\r\n     //owner=msg.sender;\r\n    //}\r\n    function storeMileage(uint mileage, uint timestamp) public{\r\n        address payable vehicleIdentity = msg.sender;\r\n        mileageEntries[vehicleIdentity].push(MileageEntry({\r\n        mileageValue: mileage,\r\n        timestamp: timestamp\r\n    }));\r\n    }\r\n\r\n    function getMileageByAddress(address target) public view\r\n    returns(uint[] memory, uint[] memory){\r\n        uint[] memory mileage = new uint[](mileageEntries[target].length);\r\n        uint[] memory timestamp = new uint[](mileageEntries[target].length);\r\n        for(uint i = 0; i < mileageEntries[target].length;i++){\r\n            MileageEntry storage entry = mileageEntries[target][i];\r\n            mileage[i] = entry.mileageValue;\r\n            timestamp[i] = entry.timestamp;\r\n        }\r\n        return (mileage,timestamp);\r\n    }\r\n}\r\n",
  "sourcePath": "F:/repo/VELOCK/VELOCKSC/contracts/Mileage.sol",
  "compiler": {
    "name": "solc",
    "version": "0.5.16+commit.9c3226ce.Emscripten.clang"
  },
  "schemaVersion": "3.4.1",
  "updatedAt": "2021-05-14T16:33:39.989Z",
  "networkType": "ethereum",
  "devdoc": {
    "methods": {}
  },
  "userdoc": {
    "methods": {}
  }
}