{
  "contractName": "Mileage",
  "abi": [
    {
      "constant": true,
      "inputs": [
        {
          "internalType": "address",
          "name": "",
          "type": "address"
        },
        {
          "internalType": "uint256",
          "name": "",
          "type": "uint256"
        }
      ],
      "name": "mileageEntries",
      "outputs": [
        {
          "internalType": "uint256",
          "name": "mileageValue",
          "type": "uint256"
        },
        {
          "internalType": "uint256",
          "name": "timestamp",
          "type": "uint256"
        }
      ],
      "payable": false,
      "stateMutability": "view",
      "type": "function"
    },
    {
      "constant": false,
      "inputs": [
        {
          "internalType": "uint256",
          "name": "mileage",
          "type": "uint256"
        },
        {
          "internalType": "uint256",
          "name": "timestamp",
          "type": "uint256"
        }
      ],
      "name": "storeMileage",
      "outputs": [
        {
          "internalType": "address",
          "name": "",
          "type": "address"
        }
      ],
      "payable": false,
      "stateMutability": "nonpayable",
      "type": "function"
    },
    {
      "constant": true,
      "inputs": [
        {
          "internalType": "address",
          "name": "target",
          "type": "address"
        },
        {
          "internalType": "uint256",
          "name": "index",
          "type": "uint256"
        }
      ],
      "name": "getMileage",
      "outputs": [
        {
          "internalType": "uint256",
          "name": "mileage",
          "type": "uint256"
        }
      ],
      "payable": false,
      "stateMutability": "view",
      "type": "function"
    },
    {
      "constant": true,
      "inputs": [
        {
          "internalType": "address",
          "name": "target",
          "type": "address"
        },
        {
          "internalType": "uint256",
          "name": "index",
          "type": "uint256"
        }
      ],
      "name": "getTimestamp",
      "outputs": [
        {
          "internalType": "uint256",
          "name": "timestamp",
          "type": "uint256"
        }
      ],
      "payable": false,
      "stateMutability": "view",
      "type": "function"
    },
    {
      "constant": true,
      "inputs": [
        {
          "internalType": "address",
          "name": "target",
          "type": "address"
        }
      ],
      "name": "getEntryCount",
      "outputs": [
        {
          "internalType": "uint256",
          "name": "count",
          "type": "uint256"
        }
      ],
      "payable": false,
      "stateMutability": "view",
      "type": "function"
    },
    {
      "constant": true,
      "inputs": [
        {
          "internalType": "address",
          "name": "target",
          "type": "address"
        }
      ],
      "name": "getMileageArray",
      "outputs": [
        {
          "internalType": "uint256[]",
          "name": "",
          "type": "uint256[]"
        }
      ],
      "payable": false,
      "stateMutability": "view",
      "type": "function"
    },
    {
      "constant": true,
      "inputs": [
        {
          "internalType": "address",
          "name": "target",
          "type": "address"
        }
      ],
      "name": "getTimestampArray",
      "outputs": [
        {
          "internalType": "uint256[]",
          "name": "",
          "type": "uint256[]"
        }
      ],
      "payable": false,
      "stateMutability": "view",
      "type": "function"
    }
  ],
  "bytecode": "0x608060405234801561001057600080fd5b506108a3806100206000396000f3fe608060405234801561001057600080fd5b506004361061007d5760003560e01c80634ca9d7161161005b5780634ca9d716146101df578063ad011a1914610248578063c5c9bd25146102e1578063f520ee4e146103395761007d565b8063025fdefb146100825780632749bd811461011b578063332c493d1461017d575b600080fd5b6100c46004803603602081101561009857600080fd5b81019080803573ffffffffffffffffffffffffffffffffffffffff1690602001909291905050506103b1565b6040518080602001828103825283818151815260200191508051906020019060200280838360005b838110156101075780820151818401526020810190506100ec565b505050509050019250505060405180910390f35b6101676004803603604081101561013157600080fd5b81019080803573ffffffffffffffffffffffffffffffffffffffff16906020019092919080359060200190929190505050610506565b6040518082815260200191505060405180910390f35b6101c96004803603604081101561019357600080fd5b81019080803573ffffffffffffffffffffffffffffffffffffffff16906020019092919080359060200190929190505050610576565b6040518082815260200191505060405180910390f35b61022b600480360360408110156101f557600080fd5b81019080803573ffffffffffffffffffffffffffffffffffffffff169060200190929190803590602001909291905050506105e6565b604051808381526020018281526020019250505060405180910390f35b61028a6004803603602081101561025e57600080fd5b81019080803573ffffffffffffffffffffffffffffffffffffffff169060200190929190505050610624565b6040518080602001828103825283818151815260200191508051906020019060200280838360005b838110156102cd5780820151818401526020810190506102b2565b505050509050019250505060405180910390f35b610323600480360360208110156102f757600080fd5b81019080803573ffffffffffffffffffffffffffffffffffffffff169060200190929190505050610779565b6040518082815260200191505060405180910390f35b61036f6004803603604081101561034f57600080fd5b8101908080359060200190929190803590602001909291905050506107c9565b604051808273ffffffffffffffffffffffffffffffffffffffff1673ffffffffffffffffffffffffffffffffffffffff16815260200191505060405180910390f35b6060806000808473ffffffffffffffffffffffffffffffffffffffff1673ffffffffffffffffffffffffffffffffffffffff168152602001908152602001600020805490506040519080825280602002602001820160405280156104245781602001602082028038833980820191505090505b50905060008090505b6000808573ffffffffffffffffffffffffffffffffffffffff1673ffffffffffffffffffffffffffffffffffffffff168152602001908152602001600020805490508110156104fc5760008060008673ffffffffffffffffffffffffffffffffffffffff1673ffffffffffffffffffffffffffffffffffffffff16815260200190815260200160002082815481106104c157fe5b9060005260206000209060020201905080600001548383815181106104e257fe5b60200260200101818152505050808060010191505061042d565b5080915050919050565b6000806000808573ffffffffffffffffffffffffffffffffffffffff1673ffffffffffffffffffffffffffffffffffffffff168152602001908152602001600020838154811061055257fe5b90600052602060002090600202019050600081600101549050809250505092915050565b6000806000808573ffffffffffffffffffffffffffffffffffffffff1673ffffffffffffffffffffffffffffffffffffffff16815260200190815260200160002083815481106105c257fe5b90600052602060002090600202019050600081600001549050809250505092915050565b600060205281600052604060002081815481106105ff57fe5b9060005260206000209060020201600091509150508060000154908060010154905082565b6060806000808473ffffffffffffffffffffffffffffffffffffffff1673ffffffffffffffffffffffffffffffffffffffff168152602001908152602001600020805490506040519080825280602002602001820160405280156106975781602001602082028038833980820191505090505b50905060008090505b6000808573ffffffffffffffffffffffffffffffffffffffff1673ffffffffffffffffffffffffffffffffffffffff1681526020019081526020016000208054905081101561076f5760008060008673ffffffffffffffffffffffffffffffffffffffff1673ffffffffffffffffffffffffffffffffffffffff168152602001908152602001600020828154811061073457fe5b90600052602060002090600202019050806001015483838151811061075557fe5b6020026020010181815250505080806001019150506106a0565b5080915050919050565b6000806000808473ffffffffffffffffffffffffffffffffffffffff1673ffffffffffffffffffffffffffffffffffffffff16815260200190815260200160002080549050905080915050919050565b6000803390506000808273ffffffffffffffffffffffffffffffffffffffff1673ffffffffffffffffffffffffffffffffffffffff168152602001908152602001600020604051806040016040528086815260200185815250908060018154018082558091505090600182039060005260206000209060020201600090919290919091506000820151816000015560208201518160010155505050809150509291505056fea265627a7a723158202d2284bb902ac25e7c30fde02553612a44da85d452ad6a26f85927406aee22b064736f6c63430005100032",
  "source": "pragma solidity ^0.5.0;\r\n\r\ncontract Mileage {\r\n    struct MileageEntry{\r\n        uint mileageValue;\r\n        uint timestamp;\r\n    }\r\n    mapping(address=>MileageEntry[]) public mileageEntries;\r\n    address owner;\r\n\r\n    //function Mileage() public{\r\n     //owner=msg.sender;\r\n    //}\r\n    function storeMileage(uint mileage, uint timestamp) public returns(address){\r\n        address payable vehicleIdentity = msg.sender;\r\n        mileageEntries[vehicleIdentity].push(MileageEntry({\r\n        mileageValue: mileage,\r\n        timestamp: timestamp\r\n    }));\r\n        return vehicleIdentity;\r\n    }\r\n\r\n    function getMileage(address target,uint index) public view\r\n    returns(uint mileage){\r\n        MileageEntry storage entry = mileageEntries[target][index];\r\n        uint mileage = entry.mileageValue;\r\n        return mileage;\r\n    }\r\n\r\n    function getTimestamp(address target,uint index) public view\r\n    returns(uint timestamp){\r\n        MileageEntry storage entry = mileageEntries[target][index];\r\n        uint timestamp = entry.timestamp;\r\n        return timestamp;\r\n    }\r\n\r\n    function getEntryCount(address target) public view\r\n    returns(uint count){\r\n        uint count = mileageEntries[target].length;\r\n        return count;\r\n    }\r\n\r\n    function getMileageArray(address target) public view returns(uint[] memory){\r\n        uint[] memory mileage = new uint[](mileageEntries[target].length);\r\n        for(uint i = 0; i<mileageEntries[target].length;i++){\r\n        MileageEntry storage entry = mileageEntries[target][i];\r\n        mileage[i]=entry.mileageValue;\r\n        }\r\n        return mileage;\r\n    }\r\n\r\n    function getTimestampArray(address target) public view returns(uint[] memory){\r\n        uint[] memory stamp = new uint[](mileageEntries[target].length);\r\n        for(uint i = 0; i<mileageEntries[target].length;i++){\r\n            MileageEntry storage entry = mileageEntries[target][i];\r\n            stamp[i]=entry.timestamp;\r\n        }\r\n        return stamp;\r\n    }\r\n}\r\n",
  "sourcePath": "C:/Users/dming/Documents/GitHub/VELOCK/VELOCKSC/contracts/Mileage.sol",
  "compiler": {
    "name": "solc",
    "version": "0.5.16+commit.9c3226ce.Emscripten.clang"
  },
  "schemaVersion": "3.2.3",
  "updatedAt": "2021-05-20T13:02:17.621Z",
  "networkType": "ethereum",
  "devdoc": {
    "methods": {}
  },
  "userdoc": {
    "methods": {}
  }
}